:020000040000FA
:1000000083162F30850086018101831231309000E4
:1000100007309F00850186014A21FB2024202D20E6
:10002000051D1A20051915200E285321051D08004D
:10003000051608008F018E010C10051908006400D8
:100040000C1C1D2805120800A518562025196A2029
:10005000A5197E20251A92200800851D4A218519A0
:1000600008007F3083169B0083124421A5000310F3
:10007000A50D031825147F3083169B0083122508D5
:1000800083169A001C153A2183122420061086102C
:100090000611A518043025190330A5190130251AB9
:1000A000063086064A21851D52280800A62005082C
:1000B000A100211C02302118043083169B008312FA
:1000C0004421A4004421A300E520211CAF202118D5
:1000D000CA200800A6200508A100211C063021180E
:1000E000083083169B0083124421A4004421A300FE
:1000F000E520211CAF202118CA200800A6200508F1
:10010000A100211C0A3021180C3083169B00831299
:100110004421A4004421A300E520211CAF20211884
:10012000CA200800A6200508A100211C0E302118B5
:10013000103083169B0083124421A4004421A300A5
:10014000E520211CAF202118CA20080083169B013E
:1001500083124421A4004421A300E5200800A5182F
:10016000043025190330A5190130251A0630860000
:100170009830A4000030A300E520C430A400003073
:10018000A300E5208230A4003930A300E5208611C9
:10019000861308009130A400C030A300E520C430CD
:1001A000A4000030A300E520C630A400FF30A30067
:1001B000E5208230A400D930A300E52086158617FB
:1001C0000610861006110800080006131030A00063
:1001D000A41BF420A41FF220A30DA40DA00BE8285B
:1001E000061708000612F528061664008616640035
:1001F00086126400080083169B01831280302F2131
:100200001F302F21AE302F2110302F21AE302F2163
:1002100028302F21AC302F2180302F21AC302F21DE
:1002200098302F21AA302F21F0302F21AB302F21F1
:1002300008302F21A9302F2160302F21A9302F2104
:1002400078302F2183167F309B00831222302F219C
:100250007F3083169B0083124421A500080083167B
:100260001C149A09031D37299A001C153A219B0A70
:100270008312080055309D00AA309D009C14640034
:100280009C183F291C11080083161C141A089B0A8D
:1002900083120800F530A100A2016400A20B4D29D1
:1002A000A10B4F2908001930A100A2016400A20B84
:0802B0005629A10B5829080092
:02400E00462149
:00000001FF
